:020000040800F2
:1000000000280020111300083111000837110008E2
:100010003D110008431100084911000800000000CC
:100020000000000000000000000000004F11000868
:100030005B11000800000000671100087311000840
:1000400059130008591300085913000859130008E0
:1000500059130008591300085913000859130008D0
:1000600059130008591300085913000859130008C0
:1000700059130008591300085913000859130008B0
:1000800059130008591300085913000859130008A0
:100090005913000859130008591300085913000890
:1000A0005913000859130008591300085913000880
:1000B00081110008591300080000000059130008BE
:1000C0005913000800000000000000005913000848
:1000D0000000000059130008591300080000000038
:1000E00059130008591300085913000800000000B4
:1000F0000000000000000000000000000000000000
:0C01000000000000000000005FF808F1A3
:10010C0010B5054C237833B9044B13B10448AFF345
:10011C0000800123237010BD74000020000000003B
:10012C008829000808B5034B1BB103490348AFF3FA
:10013C00008008BD0000000078000020882900081D
:10014C0080B500AF0A4B01221A600A4B1B68013BB9
:10015C00094A1360094B1B68013B094A136000F004
:10016C00B5FD6421012000F03FFF00BF80BD00BF42
:10017C009000002004000020640000200C000020EF
:10018C006000002080B500AF5A4B1B68042B00F2B6
:10019C00A68001A252F823F0B9010008BF010008A3
:1001AC0005020008550200089B020008FFF7C8FF73
:1001BC009EE000F0EFFF01F05FF84F4B5B68012B06
:1001CC000DD16421012000F00FFF4C4B1B68013B4B
:1001DC004A4A13604A4B1B68013B494A1360484B1F
:1001EC001B68002B7DDA434B02221A60454B1B68BF
:1001FC00013B434A136074E000F0CCFF01F024F89B
:10020C003D4B5B68012B0DD16421012000F0ECFE0D
:10021C003A4B1B68013B394A1360394B1B68013B55
:10022C00374A1360364B1B68002B5CDA314B0322C8
:10023C001A60354B1B68013B304A1360334B1B680B
:10024C00013B2F4A13604EE000F0D0FF00F0E4FFBA
:10025C00294B5B68012B0DD16421012000F0C4FEF9
:10026C00264B1B68013B254A1360254B1B68013B41
:10027C00234A1360214B1B68002B36DA1D4B0422DA
:10028C001A60204B1B68013B1C4A13602DE000F0E8
:10029C0097FF00F0C1FF184B5B68012B0DD1642157
:1002AC00012000F0A1FE154B1B68013B134A1360A3
:1002BC00134B1B68013B124A1360104B1B68002B3D
:1002CC0015DA0C4B01221A60104B1B68013B0B4AD0
:1002DC0013600D4B1B68013B094A136007E000BF1C
:1002EC0006E000BF04E000BF02E000BF00E000BF7A
:1002FC0000BF80BD90000020200100206400002081
:10030C0060000020080000200C00002004000020E9
:10031C0080B500AF6C4B1B68093B032B00F2C88007
:10032C0001A252F823F000BF45030008BB030008EC
:10033C002F040008A3040008002000F0C5F90346B0
:10034C00012B40F0B780604B0A221A605F4B0622EB
:10035C001A603221002000F047FE5D4B02221A6029
:10036C005C4B1B685C4A136000F0B0FC002210214F
:10037C005A4801F0EEFA00222021584801F0E9FA1F
:10038C0000224021554801F0E4FA00228021534814
:10039C0001F0DFFA00224FF48071504801F0D9FAD5
:1003AC0000224FF400714D4801F0D3FA82E0002096
:1003BC0000F08AF90346012B7ED1434B0B221A60C5
:1003CC00424B07221A603221002000F00DFE404BF8
:1003DC0003221A60424B1B683F4A136000F076FC04
:1003EC00002210213D4801F0B4FA002220213B48A4
:1003FC0001F0AFFA00224021384801F0AAFA00229D
:10040C008021364801F0A5FA00224FF48071334860
:10041C0001F09FFA00224FF40071304801F099FA74
:10042C004AE0002000F050F90346012B46D1264B40
:10043C000C221A60254B08221A603221002000F091
:10044C00D3FD234B04221A60264B1B68224A1360EF
:10045C0000F03CFC00221021204801F07AFA002226
:10046C0020211E4801F075FA002240211B4801F0A2
:10047C0070FA00228021194801F06BFA00224FF427
:10048C008071164801F065FA00224FF40071134890
:10049C0001F05FFA12E0002000F016F90346012B80
:1004AC000ED1094B09221A60084B00221A6007E092
:1004BC0000BF06E000BF04E000BF02E000BF00E0A8
:1004CC0000BF00BF80BD00BF0000002090000020D6
:1004DC00640000200400002060000020000801409F
:1004EC00080000200C00002080B500AF6E4B1B688C
:1004FC00082B00F08A80082B00F3CC80062B02D04E
:10050C00072B42D0C6E0694B1B68012B05D1322169
:10051C00002000F069FD00F0C7FE012000F0D4F8C7
:10052C000346012B0DD1624B1B680133604A1360EB
:10053C005F4B1B68632B02DD5D4B01221A6000F0E0
:10054C00C5FB022000F0C0F80346012B40F0A4804C
:10055C00574B1B68574A1360564B1B68564A82FB15
:10056C0003129210DB17D31A544A1360534B1B68B7
:10057C00002B02DC514B01221A604E4B1A684F4B78
:10058C001B68D31A4E4A136086E0484B1B68012B3C
:10059C0005D13221002000F027FD00F093FE012050
:1005AC0000F092F80346012B0DD1414B1B6801332F
:1005BC003F4A13603E4B1B68632B02DD3C4B012210
:1005CC001A6000F083FB022000F07EF80346012B3A
:1005DC0064D1374B1B68394A1360384B1A68134681
:1005EC009B0013445B001A46324B1A60314B1B685C
:1005FC00632B02DD2F4B63221A602E4B1A682F4B94
:10060C001B68D31A2E4A136048E0284B1B68012B39
:10061C0005D13221002000F0E7FC00F063FE012040
:10062C0000F052F80346012B0DD1214B1B6801330E
:10063C001F4A13601E4B1B68632B02DD1C4B0122EF
:10064C001A6000F043FB022000F03EF80346012B39
:10065C0026D1174B1B681A4A1360194B1A6813469C
:10066C009B0013445B00174A82FB03125210DB17EA
:10067C00D31A104A13600F4B1B68632B02DD0D4B12
:10068C0063221A600B4B1A680D4B1B68D31A0B4A6A
:10069C00136005E000BF04E000BF02E000BF00E013
:1006AC0000BF00BF80BD00BF9000002020010020D3
:1006BC0060000020040000206766666608000020C9
:1006CC000C000020398EE33880B483B000AF786022
:1006DC00094A7B6852F82330012B06D1064A7B6805
:1006EC00002142F82310012300E0002318460C37A8
:1006FC00BD4680BC704700BFA000002080B483B012
:10070C0000AF7860044A7B68012142F8231000BFD7
:10071C000C37BD4680BC7047A000002080B582B06D
:10072C0000AF00237B608FE04D4A7B6852F823209A
:10073C004C497B6841F823204B4A7B6852F82320B4
:10074C0047497B6841F823207B68002B09D10221A3
:10075C00464801F0E7F803461946434A7B6842F8DD
:10076C0023107B68012B09D10421404801F0DAF8F1
:10077C00034619463C4A7B6842F823107B68022BDF
:10078C0009D10821394801F0CDF803461946364AFB
:10079C007B6842F82310324A7B6852F82320324996
:1007AC007B6851F823309A424BD12D4A7B6852F822
:1007BC0023202C497B6851F823309A4241D1294A95
:1007CC007B6852F823202A497B6851F823309A42DF
:1007DC0017D0244A7B6852F8232025497B6841F8BE
:1007EC002320234A7B6852F82330002B29D1214A3D
:1007FC007B684FF4FA7142F823107868FFF77EFF9C
:10080C001FE01C4A7B6852F823305A1E19497B683A
:10081C0041F82320174A7B6852F82330002B10D163
:10082C00144A7B684FF4FA7142F82310104A7B6823
:10083C0052F82330002B04D10F4A7B68012142F877
:10084C0023107B6801337B600C4B1B687A689A42DF
:10085C00FFF66AAF00BF00BF0837BD4680BD00BFC2
:10086C00200000202C000020140000200008014073
:10087C0038000020440000209400002010000020CC
:10088C0080B582B000AF78607B68092B00F2808164
:10089C0001A252F823F000BFCD080008150900088A
:1008AC005D090008A5090008ED090008350A0008D3
:1008BC007D0A0008C50A00080D0B0008550B00083E
:1008CC0000220121B54801F044F800220221B3486E
:1008DC0001F03FF800220421B04801F03AF8002260
:1008EC000821AE4801F035F800221021AB4801F088
:1008FC0030F800222021A94801F02BF801224021D8
:10090C00A64801F026F844E101220121A34801F098
:10091C0020F800220221A14801F01BF8002204213A
:10092C009E4801F016F8012208219C4801F011F8AC
:10093C0001221021994801F00CF80122202197483E
:10094C0001F007F801224021944801F002F820E15F
:10095C0000220121914800F0FCFF002202218F4867
:10096C0000F0F7FF012204218C4800F0F2FF002276
:10097C0008218A4800F0EDFF00221021874800F082
:10098C00E8FF01222021854800F0E3FF00224021EE
:10099C00824800F0DEFFFCE0002201217F4800F0DD
:1009AC00D8FF002202217D4800F0D3FF0022042151
:1009BC007A4800F0CEFF00220821784800F0C9FFE9
:1009CC0001221021754800F0C4FF01222021734838
:1009DC0000F0BFFF00224021704800F0BAFFD8E0C1
:1009EC00012201216D4800F0B4FF002202216B4866
:1009FC0000F0AFFF00220421684800F0AAFF01229A
:100A0C000821664800F0A5FF01221021634800F080
:100A1C00A0FF00222021614800F09BFF0022402112
:100A2C005E4800F096FFB4E0002201215B4800F024
:100A3C0090FF01220221594800F08BFF0022042173
:100A4C00564800F086FF00220821544800F081FF30
:100A5C0001221021514800F07CFF002220214F4838
:100A6C0000F077FF002240214C4800F072FF90E02C
:100A7C0000220121494800F06CFF01220221474865
:100A8C0000F067FF00220421444800F062FF0022BE
:100A9C000821424800F05DFF002210213F4800F081
:100AAC0058FF002220213D4800F053FF0022402136
:100ABC003A4800F04EFF6CE000220121374800F06C
:100ACC0048FF00220221354800F043FF0022042198
:100ADC00324800F03EFF01220821304800F039FF77
:100AEC00012210212D4800F034FF012220212B4837
:100AFC0000F02FFF01224021284800F02AFF48E097
:100B0C0000220121254800F024FF00220221234865
:100B1C0000F01FFF00220421204800F01AFF0022E1
:100B2C0008211E4800F015FF002210211B4800F080
:100B3C0010FF00222021194800F00BFF0022402159
:100B4C00164800F006FF24E000220121134800F0B3
:100B5C0000FF00220221114800F0FBFE00220421BC
:100B6C000E4800F0F6FE002208210C4800F0F1FEC1
:100B7C0001221021094800F0ECFE00222021074838
:100B8C0000F0E7FE00224021044800F0E2FE00E005
:100B9C0000BF00BF0837BD4680BD00BF000C014040
:100BAC0080B582B000AF78607B68032B00F2848044
:100BBC0001A252F823F000BFD50B0008110C00085D
:100BCC004D0C0008890C000800224FF480613D4850
:100BDC0000F0BFFE01224FF400613A4800F0B9FE6C
:100BEC0001224FF48051374800F0B3FE01224FF43C
:100BFC000051344800F0ADFE334B1B681846FFF72C
:100C0C003FFE5AE001224FF480612E4800F0A1FE15
:100C1C0000224FF400612B4800F09BFE01224FF4A0
:100C2C008051284800F095FE01224FF400512548D0
:100C3C0000F08FFE244B5B681846FFF721FE3CE06A
:100C4C0001224FF480611F4800F083FE01224FF413
:100C5C0000611C4800F07DFE00224FF480511948C1
:100C6C0000F077FE01224FF40051164800F071FE9F
:100C7C00154B9B681846FFF703FE1EE001224FF44C
:100C8C008061104800F065FE01224FF400610D48B0
:100C9C0000F05FFE01224FF480510A4800F059FE2B
:100CAC0000224FF40051074800F053FE064BDB685E
:100CBC001846FFF7E5FD00E000BF00BF0837BD4652
:100CCC0080BD00BF000801405000002080B400AF80
:100CDC001A4B1B681A4A82FB03129210DB17D31AA9
:100CEC00184A1360154B1968154B83FB01239A1096
:100CFC00CB17D21A13469B0013445B00CA1A114B34
:100D0C005A60114B1B680E4A82FB03129210DB17C0
:100D1C00D31A0C4A93600C4B1968094B83FB0123C3
:100D2C009A10CB17D21A13469B0013445B00CA1AB5
:100D3C00044BDA6000BFBD4680BC704764000020E5
:100D4C0067666666500000206000002080B500AF2A
:100D5C000E4B9B68012B17D11921022000F044F98E
:100D6C000B4B1B681846FFF71BFFFFF7AFFF084B39
:100D7C001B680133064A1360054B1B68042293421F
:100D8C0002DB034B00221A6000BF80BD2001002053
:100D9C00AC00002080B500AF00F0DAFA00F01AF8D1
:100DAC0000F054F800F09EF8094801F02FFA1921D0
:100DBC00022000F019F96421092000F015F9FFF761
:100DCC00C5FFFFF7DFF9FFF7A3FAFFF78DFBF6E797
:100DDC00B000002080B590B000AF07F118032822B6
:100DEC000021184601F0C2FD3B1D00221A605A601A
:100DFC009A60DA601A610223BB610123BB62102383
:100E0C00FB6200237B6307F11803184600F0D2FD48
:100E1C000346002B01D000F0E1F80F237B60002388
:100E2C00BB600023FB6000233B6100237B613B1D07
:100E3C000021184601F03EF80346002B01D000F0CB
:100E4C00CDF800BF4037BD4680BD000080B586B0F0
:100E5C0000AF07F1080300221A605A609A60DA604A
:100E6C003B4600221A605A601D4B4FF080421A60BC
:100E7C001B4B41F63F725A60194B00229A60184B7B
:100E8C000922DA60164B00221A61154B00229A6176
:100E9C00134801F06BF90346002B01D000F09EF8CB
:100EAC004FF48053BB6007F1080319460C4801F05E
:100EBC00E9FA0346002B01D000F090F800233B60C8
:100ECC0000237B603B461946054801F0C1FC0346F4
:100EDC00002B01D000F082F800BF1837BD4680BD52
:100EEC00B000002080B586B000AF07F108030022E7
:100EFC001A605A609A60DA60274B9B69264A43F065
:100F0C0004039361244B9B6903F004037B607B68AF
:100F1C00214B9B69204A43F0080393611E4B9B694C
:100F2C0003F008033B603B68002243F6F0711B485A
:100F3C0000F00FFD0022FF21194800F00AFD0E23DE
:100F4C00BB600023FB6001233B6107F108031946DA
:100F5C00124800F06DFB43F6F073BB600123FB609D
:100F6C0000233B6102237B6107F1080319460B4800
:100F7C0000F05EFBFF23BB600123FB6000233B61A1
:100F8C0002237B6107F108031946054800F050FB6A
:100F9C0000BF1837BD4680BD00100240000801405C
:100FAC00000C014080B582B000AF786000F034F8DE
:100FBC00FFF7B4FB074B5B6A012B07D164210920B7
:100FCC0000F012F88021044800F0DBFC00BF083769
:100FDC00BD4680BD20010020000C014080B400AF54
:100FEC0072B600BFFEE7000080B483B000AF78603B
:100FFC003960074A7B68002142F8231005497B6859
:10100C003A6841F8232000BF0C37BD4680BC7047BE
:10101C0020010020F800002080B483B000AF002332
:10102C007B601CE0124A7B6852F82330002B13DBE8
:10103C000F4A7B6852F823305A1E0D497B6841F8E1
:10104C0023200B4A7B6852F82330002B04DC094A1E
:10105C007B68012142F823107B6801337B607B683D
:10106C00092BDFDD00BF00BF0C37BD4680BC7047CD
:10107C00F80000202001002080B485B000AF154B93
:10108C009B69144A43F001039361124B9B6903F073
:10109C000103BB60BB680F4BDB690E4A43F0805306
:1010AC00D3610C4BDB6903F080537B607B680A4B8C
:1010BC005B68FB60FB6823F0E063FB60FB6843F05C
:1010CC008063FB60044AFB68536000BF1437BD4665
:1010DC0080BC7047001002400000014080B584B015
:1010EC0000AF78607B681B68B3F1804F13D10C4B59
:1010FC00DB690B4A43F00103D361094BDB6903F055
:10110C000103FB60FB68002200211C2000F059FA4F
:10111C001C2000F072FA00BF1037BD4680BD00BF26
:10112C000010024080B400AFFEE780B400AFFEE7D1
:10113C0080B400AFFEE780B400AFFEE780B400AF30
:10114C00FEE780B400AF00BFBD4680BC704780B4E2
:10115C0000AF00BFBD4680BC704780B400AF00BF7D
:10116C00BD4680BC704780B500AF00F037F900BFBA
:10117C0080BD000080B500AF024801F093F800BFBD
:10118C0080BD00BFB000002080B400AF00BFBD46E2
:10119C0080BC704780B500AF01221021074800F0D9
:1011AC00D8FB00222021054800F0D3FB002240216F
:1011BC00024800F0CEFB00BF80BD00BF000801401C
:1011CC0080B500AF00221021074800F0C2FB0122BD
:1011DC002021054800F0BDFB00224021024800F010
:1011EC00B8FB00BF80BD00BF0008014080B500AF58
:1011FC0000221021074800F0ACFB002220210548FA
:10120C0000F0A7FB01224021024800F0A2FB00BF26
:10121C0080BD00BF0008014080B500AF01228021D5
:10122C00084800F096FB00224FF48071054800F04E
:10123C0090FB00224FF40071024800F08AFB00BFC3
:10124C0080BD00BF0008014080B500AF00228021A6
:10125C00084800F07EFB01224FF48071054800F035
:10126C0078FB00224FF40071024800F072FB00BFC3
:10127C0080BD00BF0008014080B500AF0022802176
:10128C00084800F066FB00224FF48071054800F01E
:10129C0060FB01224FF40071024800F05AFB00BFC2
:1012AC0080BD00BF0008014080B500AF102104488C
:1012BC0000F067FB8021024800F063FB00BF80BD9B
:1012CC000008014080B500AF2021054800F059FB13
:1012DC004FF48071024800F054FB00BF80BD00BF8A
:1012EC000008014080B500AF4021054800F049FBE3
:1012FC004FF40071024800F044FB00BF80BD00BFFA
:10130C0000080140FFF740FF0B480C490C4A002332
:10131C0002E0D458C4500433C4188C42F9D3094A9F
:10132C00094C002301E013600432A242FBD301F00C
:10133C00F9FAFFF72FFD7047000000207400002021
:10134C00CC290008740000204C010020FEE70000AE
:10135C0080B500AF084B1B68074A43F010031360BD
:10136C00032000F023F90F2000F008F8FFF784FEAB
:10137C000023184680BD00BF0020024080B582B01B
:10138C0000AF7860124B1A68124B1B7819464FF459
:10139C007A73B3FBF1F3B2FBF3F3184600F03BF9AD
:1013AC000346002B01D001230EE07B680F2B0AD8DB
:1013BC00002279684FF0FF3000F003F9064A7B6891
:1013CC001360002300E0012318460837BD4680BD9A
:1013DC0068000020700000206C00002080B400AF7A
:1013EC00054B1B781A46054B1B681344034A1360C4
:1013FC0000BFBD4680BC7047700000204801002033
:10140C0080B400AF024B1B681846BD4680BC7047C9
:10141C004801002080B485B000AF78607B6803F091
:10142C000703FB600C4BDB68BB60BA684FF6FF032D
:10143C001340BB60FB681A02BB68134343F0BF63E5
:10144C0043F40033BB60044ABB68D36000BF14375D
:10145C00BD4680BC704700BF00ED00E080B400AF1B
:10146C00044BDB681B0A03F007031846BD4680BC1F
:10147C00704700BF00ED00E080B483B000AF0346BE
:10148C00FB7197F90730002B0BDBFB7903F01F0284
:10149C00064997F907305B09012000FA02F241F87E
:1014AC00232000BF0C37BD4680BC704700E100E034
:1014BC0080B483B000AF03463960FB7197F90730F5
:1014CC00002B0ADB3B68DAB20C4997F907301201A2
:1014DC00D2B20B4483F800230AE03B68DAB2084925
:1014EC00FB7903F00F03043B1201D2B20B441A76C2
:1014FC0000BF0C37BD4680BC704700BF00E100E068
:10150C0000ED00E080B489B000AFF860B9607A609B
:10151C00FB6803F00703FB61FB69C3F10703042BB2
:10152C0028BF0423BB61FB690433062B02D9FB697A
:10153C00033B00E000237B614FF0FF32BB6902FAF2
:10154C0003F3DA43BB681A407B699A404FF0FF31D2
:10155C007B6901FA03F3D9437B680B4013431846AC
:10156C002437BD4680BC704780B582B000AF786030
:10157C007B68013BB3F1807F01D301230FE00A4A62
:10158C007B68013B53600F214FF0FF30FFF790FF5A
:10159C00054B00229A60044B07221A600023184660
:1015AC000837BD4680BD00BF10E000E080B582B0BA
:1015BC0000AF78607868FFF72DFF00BF0837BD4695
:1015CC0080BD80B586B000AF0346B9607A60FB730E
:1015DC0000237B61FFF742FF78617A68B96878690C
:1015EC00FFF790FF024697F90F3011461846FFF7A8
:1015FC005FFF00BF1837BD4680BD80B582B000AF1D
:10160C000346FB7197F907301846FFF735FF00BF0B
:10161C000837BD4680BD80B582B000AF7860786871
:10162C00FFF7A2FF034618460837BD4680BD0000F1
:10163C0080B48BB000AF7860396000237B620023EC
:10164C003B6248E101227B6A02FA03F3FB613B68CF
:10165C001B68FA691340BB61BA69FB699A4240F096
:10166C0037813B685B68A34A93425ED0A14A9342A0
:10167C0075D8A14A934258D09F4A93426FD89F4A3B
:10168C00934252D09D4A934269D89D4A93424CD082
:10169C009B4A934263D89B4A934246D0994A9342C1
:1016AC005DD8122B2AD8122B59D801A252F823F04C
:1016BC0037170008111700082317000865170008D2
:1016CC006B1700086B1700086B1700086B170008E6
:1016DC006B1700086B1700086B1700086B170008D6
:1016EC006B1700086B1700086B1700086B170008C6
:1016FC006B170008191700082D170008824A93422F
:10170C0013D02CE03B68DB683B6229E03B68DB686C
:10171C0004333B6224E03B68DB6808333B621FE028
:10172C003B68DB680C333B621AE03B689B68002B20
:10173C0002D104233B6213E03B689B68012B05D16B
:10174C0008233B627B68FA691A6109E008233B6253
:10175C007B68FA695A6103E000233B6200E000BF3A
:10176C00BB69FF2B01D87B6801E07B6804337B618C
:10177C00BB69FF2B02D87B6A9B0002E07B6A083BAB
:10178C009B003B617B691A680F213B6901FA03F3EB
:10179C00DB431A40396A3B6901FA03F31A437B694C
:1017AC001A603B685B6803F08053002B00F090805C
:1017BC00564B9B69554A43F001039361534B9B690C
:1017CC0003F00103BB60BB68514A7B6A9B08023380
:1017DC0052F82330FB607B6A03F003039B000F225B
:1017EC0002FA03F3DB43FA681340FB607B68494A57
:1017FC0093420DD07B68484A934207D07B68474A96
:10180C00934201D1022304E0032302E0012300E010
:10181C0000237A6A02F0030292009340FA681343A1
:10182C00FB603B497B6A9B080233FA6841F8232032
:10183C003B685B6803F48013002B06D0384B9A6826
:10184C003749BB6913438B6006E0354B9A68BB691B
:10185C00DB43334913408B603B685B6803F4001334
:10186C00002B06D02E4BDA682D49BB691343CB6095
:10187C0006E02B4BDA68BB69DB4329491340CB608C
:10188C003B685B6803F40033002B06D0244B5A688A
:10189C002349BB6913434B6006E0214B5A68BB6973
:1018AC00DB431F4913404B603B685B6803F4803398
:1018BC00002B06D01A4B1A681949BB6913430B60ED
:1018CC0006E0174B1A68BB69DB43154913400B60E4
:1018DC007B6A01337B623B681A687B6A22FA03F3EA
:1018EC00002B7FF4AFAE00BF00BF2C37BD4680BCD1
:1018FC00704700BF000032100000311000002210B1
:10190C000000211000001210000011100010024005
:10191C000000014000080140000C01400010014093
:10192C000004014080B485B000AF78600B467B802A
:10193C007B689A687B881340002B02D00123FB73D1
:10194C0001E00023FB73FB7B18461437BD4680BCBB
:10195C00704780B483B000AF78600B467B80134631
:10196C007B707B78002B03D07A887B681A6103E04C
:10197C007B881A047B681A6100BF0C37BD4680BC9B
:10198C00704780B485B000AF78600B467B807B6875
:10199C00DB68FB607A88FB6813401A04FB68D94348
:1019AC007B880B401A437B681A6100BF1437BD4615
:1019BC0080BC704780B586B000AF78607B68002B28
:1019CC0001D101236CE27B681B6803F00103002B3F
:1019DC0000F08780924B5B6803F00C03042B0CD057
:1019EC008F4B5B6803F00C03082B12D18C4B5B689C
:1019FC0003F48033B3F5803F0BD1894B1B6803F4A0
:101A0C000033002B6CD07B685B68002B68D1012302
:101A1C0046E27B685B68B3F5803F06D1804B1B6860
:101A2C007F4A43F4803313602EE07B685B68002BA5
:101A3C000CD17B4B1B687A4A23F480331360784BB0
:101A4C001B68774A23F4802313601DE07B685B6876
:101A5C00B3F5A02F0CD1724B1B68714A43F4802351
:101A6C0013606F4B1B686E4A43F4803313600BE0BA
:101A7C006B4B1B686A4A23F480331360684B1B68FA
:101A8C00674A23F4802313607B685B68002B13D0B8
:101A9C00FFF7B6FC386108E0FFF7B2FC02463B6981
:101AAC00D31A642B01D90323FAE15D4B1B6803F4B1
:101ABC000033002BF0D014E0FFF7A2FC386108E0F3
:101ACC00FFF79EFC02463B69D31A642B01D9032312
:101ADC00E6E1534B1B6803F40033002BF0D100E01C
:101AEC0000BF7B681B6803F00203002B63D04C4BD8
:101AFC005B6803F00C03002B0BD0494B5B6803F0C5
:101B0C000C03082B1CD1464B5B6803F48033002B71
:101B1C0016D1434B1B6803F00203002B05D07B68E6
:101B2C001B69012B01D00123BAE13D4B1B6823F04B
:101B3C00F8027B685B69DB00394913430B603AE0C0
:101B4C007B681B69002B20D0364B01221A60FFF7F3
:101B5C0057FC386108E0FFF753FC02463B69D31A87
:101B6C00022B01D903239BE12D4B1B6803F00203CD
:101B7C00002BF0D02A4B1B6823F0F8027B685B69C2
:101B8C00DB00274913430B6015E0264B00221A603B
:101B9C00FFF736FC386108E0FFF732FC02463B6980
:101BAC00D31A022B01D903237AE11D4B1B6803F0D6
:101BBC000203002BF0D17B681B6803F00803002B99
:101BCC003AD07B689B69002B19D0174B01221A6005
:101BDC00FFF716FC386108E0FFF712FC02463B6980
:101BEC00D31A022B01D903235AE10D4B5B6A03F084
:101BFC000203002BF0D0012000F09AFA1CE00A4BF3
:101C0C0000221A60FFF7FCFB38610FE0FFF7F8FBCE
:101C1C0002463B69D31A022B08D9032340E100BFCB
:101C2C000010024000004242800442429E4B5B6A1C
:101C3C0003F00203002BE9D17B681B6803F004035B
:101C4C00002B00F0A6800023FB75974BDB6903F09B
:101C5C008053002B0DD1944BDB69934A43F0805396
:101C6C00D361914BDB6903F08053BB60BB680123EC
:101C7C00FB758E4B1B6803F48073002B18D18B4BB8
:101C8C001B688A4A43F480731360FFF7B9FB386111
:101C9C0008E0FFF7B5FB02463B69D31A642B01D968
:101CAC000323FDE0814B1B6803F48073002BF0D001
:101CBC007B68DB68012B06D17B4B1B6A7A4A43F0AD
:101CCC00010313622DE07B68DB68002B0CD1764B93
:101CDC001B6A754A23F001031362734B1B6A724A29
:101CEC0023F0040313621CE07B68DB68052B0CD12A
:101CFC006D4B1B6A6C4A43F0040313626A4B1B6AFC
:101D0C00694A43F0010313620BE0674B1B6A664A96
:101D1C0023F001031362644B1B6A634A23F0040330
:101D2C0013627B68DB68002B15D0FFF769FB386109
:101D3C000AE0FFF765FB02463B69D31A41F2883291
:101D4C00934201D90323ABE0574B1B6A03F0020308
:101D5C00002BEED014E0FFF753FB38610AE0FFF7DD
:101D6C004FFB02463B69D31A41F28832934201D9A8
:101D7C00032395E04C4B1B6A03F00203002BEED1BE
:101D8C00FB7D012B05D1484BDB69474A23F080537F
:101D9C00D3617B68DB69002B00F08180424B5B6870
:101DAC0003F00C03082B61D07B68DB69022B46D156
:101DBC003F4B00221A60FFF723FB386108E0FFF766
:101DCC001FFB02463B69D31A022B01D9032367E0A0
:101DDC00354B1B6803F00073002BF0D17B681B6A3A
:101DEC00B3F5803F08D1304B5B6823F400327B683D
:101DFC009B682D4913434B602B4B5B6823F4741287
:101E0C007B68196A7B685B6A0B43274913434B60F9
:101E1C00274B01221A60FFF7F3FA386108E0FFF74D
:101E2C00EFFA02463B69D31A022B01D9032337E0A0
:101E3C001D4B1B6803F00073002BF0D02FE01C4BE4
:101E4C0000221A60FFF7DCFA386108E0FFF7D8FAD5
:101E5C0002463B69D31A022B01D9032320E0124B13
:101E6C001B6803F00073002BF0D118E07B68DB6972
:101E7C00012B01D1012313E00B4B5B68FB60FB686A
:101E8C0003F480327B681B6A9A4206D1FB6803F428
:101E9C0070127B685B6A9A4201D0012300E0002338
:101EAC0018461837BD4680BD001002400070004037
:101EBC006000424280B584B000AF786039607B68C6
:101ECC00002B01D10123D0E06A4B1B6803F0070300
:101EDC003A689A4210D9674B1B6823F00702654990
:101EEC003B6813430B60634B1B6803F007033A68B2
:101EFC009A4201D00123B8E07B681B6803F002030F
:101F0C00002B20D07B681B6803F00403002B05D04A
:101F1C00594B5B68584A43F4E06353607B681B6819
:101F2C0003F00803002B05D0534B5B68524A43F473
:101F3C0060535360504B5B6823F0F0027B689B68E6
:101F4C004D4913434B607B681B6803F00103002B66
:101F5C0040D07B685B68012B07D1474B1B6803F4AF
:101F6C000033002B15D101237FE07B685B68022BCB
:101F7C0007D1414B1B6803F00073002B09D10123DF
:101F8C0073E03D4B1B6803F00203002B01D10123CE
:101F9C006BE0394B5B6823F003027B685B68364966
:101FAC0013434B60FFF72CFAF8600AE0FFF728FAAE
:101FBC000246FB68D31A41F28832934201D90323BB
:101FCC0053E02D4B5B6803F00C027B685B689B0055
:101FDC009A42EBD1274B1B6803F007033A689A42ED
:101FEC0010D2244B1B6823F0070222493B68134391
:101FFC000B60204B1B6803F007033A689A4201D030
:10200C00012332E07B681B6803F00403002B08D02B
:10201C00194B5B6823F4E0627B68DB681649134359
:10202C004B607B681B6803F00803002B09D0124B34
:10203C005B6823F460527B681B69DB000E49134319
:10204C004B6000F021F802460B4B5B681B0903F058
:10205C000F030A49CB5C22FA03F3094A1360094BBC
:10206C001B681846FFF78AF9002318461037BD463F
:10207C0080BD00BF0020024000100240A0290008D3
:10208C00680000206C00002080B487B000AF0023F3
:10209C00FB600023BB6000237B6100237B6000237B
:1020AC003B611E4B5B68FB60FB6803F00C03042B6D
:1020BC0002D0082B03D027E0194B3B6127E0FB68CB
:1020CC009B0C03F00F03174AD35C7B60FB6803F493
:1020DC008033002B10D0114B5B685B0C03F00103B9
:1020EC00114AD35CBB607B680D4A02FB03F2BB68F0
:1020FC00B2FBF3F37B6104E07B680C4A02FB03F355
:10210C007B617B693B6102E0054B3B6100BF3B6936
:10211C0018461C37BD4680BC704700BF00100240FB
:10212C0000127A00B0290008C029000800093D00FF
:10213C0080B485B000AF78600A4B1B680A4AA2FBDA
:10214C0003235B0A7A6802FB03F3FB6000BFFB68A6
:10215C005A1EFA60002BF9D100BF00BF1437BD46E0
:10216C0080BC704768000020D34D621080B582B0EF
:10217C0000AF78607B68002B01D1012341E07B68C4
:10218C0093F83D30DBB2002B06D17B68002283F83C
:10219C003C207868FEF7A2FF7B68022283F83D2082
:1021AC007B681A687B6804331946104600F056FAAF
:1021BC007B68012283F846207B68012283F83E204D
:1021CC007B68012283F83F207B68012283F8402042
:1021DC007B68012283F841207B68012283F842202E
:1021EC007B68012283F843207B68012283F844201A
:1021FC007B68012283F845207B68012283F83D200F
:10220C00002318460837BD4680BD000080B485B059
:10221C0000AF78607B6893F83D30DBB2012B01D0C6
:10222C00012335E07B68022283F83D207B681B6824
:10223C00DA687B681B6842F00102DA607B681B6815
:10224C00164A934209D07B681B68B3F1804F04D0C7
:10225C007B681B68124A934211D17B681B689B6890
:10226C0003F00703FB60FB68062B10D07B681B6830
:10227C001A687B681B6842F001021A6007E07B68F1
:10228C001B681A687B681B6842F001021A60002305
:10229C0018461437BD4680BC704700BF002C014067
:1022AC000004004080B584B000AF78607B681B6888
:1022BC00DB68FB607B681B681B69BB60BB6803F059
:1022CC000203002B20D0FB6803F00203002B1BD071
:1022DC007B681B686FF002021A617B6801221A7717
:1022EC007B681B689B6903F00303002B03D07868A1
:1022FC0000F098F905E0786800F08BF9786800F048
:10230C009AF97B6800221A77BB6803F00403002B50
:10231C0020D0FB6803F00403002B1BD07B681B68E8
:10232C006FF004021A617B6802221A777B681B68C3
:10233C009B6903F44073002B03D0786800F072F9AA
:10234C0005E0786800F065F9786800F074F97B684E
:10235C0000221A77BB6803F00803002B20D0FB681F
:10236C0003F00803002B1BD07B681B686FF008027E
:10237C001A617B6804221A777B681B68DB6903F09F
:10238C000303002B03D0786800F04CF905E0786863
:10239C0000F03FF9786800F04EF97B6800221A775C
:1023AC00BB6803F01003002B20D0FB6803F0100374
:1023BC00002B1BD07B681B686FF010021A617B68C6
:1023CC0008221A777B681B68DB6903F44073002BC7
:1023DC0003D0786800F026F905E0786800F019F968
:1023EC00786800F028F97B6800221A77BB6803F044
:1023FC000103002B0CD0FB6803F00103002B07D06A
:10240C007B681B686FF001021A617868FEF7CAFDE1
:10241C00BB6803F08003002B0CD0FB6803F0800337
:10242C00002B07D07B681B686FF080021A617868FC
:10243C0000F06FFABB6803F04003002B0CD0FB6874
:10244C0003F04003002B07D07B681B686FF0400241
:10245C001A61786800F0F8F8BB6803F02003002BD1
:10246C000CD0FB6803F02003002B07D07B681B68A3
:10247C006FF020021A61786800F042FA00BF103742
:10248C00BD4680BD80B584B000AF78603960002354
:10249C00FB737B6893F83C30012B01D10223B4E031
:1024AC007B68012283F83C207B68022283F83D2064
:1024BC007B681B689B68BB60BB6823F07703BB60C1
:1024CC00BB6823F47F43BB607B681B68BA689A6067
:1024DC003B681B68B3F5005F3ED0B3F5005F00F2BC
:1024EC008780B3F5805F00F08680B3F5805F7FD87E
:1024FC00702B1AD0702B7BD8602B50D0602B77D8D8
:10250C00502B3CD0502B73D8402B58D0402B6FD82D
:10251C00302B64D0302B6BD8202B60D0202B67D87D
:10252C00002B5CD0102B5AD062E07B6818683B689B
:10253C0099683B685A683B68DB6800F06AF97B680D
:10254C001B689B68BB60BB6843F07703BB607B6810
:10255C001B68BA689A604FE07B6818683B6899689A
:10256C003B685A683B68DB6800F053F97B681B6872
:10257C009A687B681B6842F480429A603CE07B68F6
:10258C0018683B6859683B68DB681A4600F0CAF863
:10259C007B681B685021184600F021F92CE07B6801
:1025AC0018683B6859683B68DB681A4600F0E8F825
:1025BC007B681B686021184600F011F91CE07B68F1
:1025CC0018683B6859683B68DB681A4600F0AAF843
:1025DC007B681B684021184600F001F90CE07B6811
:1025EC001A683B681B681946104600F0F8F803E0BF
:1025FC000123FB7300E000BF7B68012283F83D20C0
:10260C007B68002283F83C20FB7B18461037BD46C4
:10261C0080BD80B483B000AF786000BF0C37BD467E
:10262C0080BC704780B483B000AF786000BF0C37BB
:10263C00BD4680BC704780B483B000AF786000BFEB
:10264C000C37BD4680BC704780B483B000AF786057
:10265C0000BF0C37BD4680BC7047000080B485B00D
:10266C0000AF786039607B681B68FB607B682B4A25
:10267C00934207D07B68B3F1804F03D07B68284A24
:10268C00934208D1FB6823F07003FB603B685B68E6
:10269C00FA681343FB607B68204A934207D07B683F
:1026AC00B3F1804F03D07B681D4A934208D1FB687D
:1026BC0023F44073FB603B68DB68FA681343FB60F0
:1026CC00FB6823F080023B685B691343FB607B680B
:1026DC00FA681A603B689A687B68DA623B681A6829
:1026EC007B689A627B680D4A934203D13B681A69F6
:1026FC007B681A637B6801225A617B681B6903F053
:10270C000103002B05D07B681B6923F001027B6859
:10271C001A6100BF1437BD4680BC7047002C0140C5
:10272C000004004080B487B000AFF860B9607A60F4
:10273C00FB681B6A7B61FB681B6A23F00102FB6868
:10274C001A62FB689B693B613B6923F0F0033B61B8
:10275C007B681B013A6913433B617B6923F00A03D5
:10276C007B617A69BB6813437B61FB683A699A6148
:10277C00FB687A691A6200BF1C37BD4680BC704783
:10278C0080B487B000AFF860B9607A60FB681B6AF0
:10279C007B61FB681B6A23F01002FB681A62FB6802
:1027AC009B693B613B6923F470433B617B681B0372
:1027BC003A6913433B617B6923F0A0037B61BB68DF
:1027CC001B017A6913437B61FB683A699A61FB6868
:1027DC007A691A6200BF1C37BD4680BC704780B452
:1027EC0085B000AF786039607B689B68FB60FB68E4
:1027FC0023F07003FB603A68FB68134343F0070354
:10280C00FB607B68FA689A6000BF1437BD4680BCD9
:10281C00704780B487B000AFF860B9607A603B60F5
:10282C00FB689B687B617B6923F47F437B613B681E
:10283C001A027B681A43BB6813437A6913437B61A2
:10284C00FB687A699A6000BF1C37BD4680BC704734
:10285C0080B485B000AF786039607B6893F83C3009
:10286C00012B01D1022341E07B68012283F83C203B
:10287C007B68022283F83D207B681B685B68FB60E9
:10288C007B681B689B68BB60FB6823F07003FB6074
:10289C003B681B68FA681343FB607B681B68FA682B
:1028AC005A607B681B68144A934209D07B681B688A
:1028BC00B3F1804F04D07B681B68104A93420CD153
:1028CC00BB6823F08003BB603B685B68BA6813434A
:1028DC00BB607B681B68BA689A607B68012283F8CE
:1028EC003D207B68002283F83C20002318461437D7
:1028FC00BD4680BC704700BF002C01400004004066
:10290C0080B483B000AF786000BF0C37BD4680BC8C
:10291C00704780B483B000AF786000BF0C37BD4601
:10292C0080BC704770B500260C4D0D4C641BA41078
:10293C00A64209D100F022F800260A4D0A4C641B6D
:10294C00A410A64205D170BD55F8043B984701363A
:10295C00EEE755F8043B98470136F2E7C429000826
:10296C00C4290008C4290008C829000803460244E9
:10297C00934200D1704703F8011BF9E7F8B500BF8B
:10298C00F8BC08BC9E467047F8B500BFF8BC08BC44
:04299C009E4670479C
:1029A00000000000000000000102030406070809FF
:1029B00002030405060708090A0B0C0D0E0F101080
:0429C0000102000010
:0429C40031010008D5
:0429C8000D010008F5
:1029CC0009000000070000000200000005000000E4
:1029DC0003000000010000000100000001000000E5
:1029EC0001000000010000000100000001000000D7
:1029FC0001000000010000000100000001000000C7
:102A0C0001000000F4010000F4010000F4010000DA
:102A1C001E0000001E00000000000000000000006E
:102A2C001E0000001E00000000127A0010000000C2
:042A3C000100000095
:0400000508001311CB
:00000001FF
