:020000040800F2
:100000000028002035130008551100085B11000876
:1000100061110008671100086D1100080000000060
:100020000000000000000000000000007311000844
:100030007F110008000000008B11000897110008D4
:100040007D1300087D1300087D1300087D13000850
:100050007D1300087D1300087D1300087D13000840
:100060007D1300087D1300087D1300087D13000830
:100070007D1300087D1300087D1300087D13000820
:100080007D1300087D1300087D1300087D13000810
:100090007D1300087D1300087D1300087D13000800
:1000A0007D1300087D1300087D1300087D130008F0
:1000B000A51100087D130008000000007D13000852
:1000C0007D13000800000000000000007D13000800
:1000D000000000007D1300087D13000800000000F0
:1000E0007D1300087D1300087D1300080000000048
:1000F0000000000000000000000000000000000000
:0C01000000000000000000005FF808F1A3
:10010C0010B5054C237833B9044B13B10448AFF345
:10011C0000800123237010BD74000020000000003B
:10012C00AC29000808B5034B1BB103490348AFF3D6
:10013C00008008BD0000000078000020AC290008F9
:10014C0080B500AF0A4B01221A600A4B1B68013BB9
:10015C00094A1360094B1B68013B094A136000F004
:10016C00DBFD6421012000F051FF00BF80BD00BF0A
:10017C009000002004000020640000200C000020EF
:10018C006000002080B500AF6D4B1B68042B00F2A3
:10019C00CB8001A252F823F0B9010008BF0100087E
:1001AC00190200087B020008D3020008FFF7C8FF01
:1001BC00C3E001F001F801F071F8624B5B68012BB0
:1001CC000DD16421012000F021FF5F4B1B68013B26
:1001DC005D4A13605D4B1B68013B5C4A13605B4BD3
:1001EC001B68002B80F2A280554B02221A60584BE0
:1001FC001B68013B554A1360554B1B68642202FB7C
:10020C0003F31946002000F001FF8FE000F0D4FF4B
:10021C0001F02CF84B4B5B68012B0DD164210120B4
:10022C0000F0F4FE484B1B68013B474A1360474BF8
:10023C001B68013B454A1360444B1B68002B77DA63
:10024C003F4B03221A60434B1B68013B3E4A136031
:10025C00414B1B68013B3D4A13603E4B1B686422BB
:10026C0002FB03F31946002000F0D0FE60E000F022
:10027C00CFFF00F0E3FF334B5B68012B0DD1642102
:10028C00012000F0C3FE304B1B68013B2E4A13606B
:10029C002E4B1B68013B2D4A13602B4B1B68002B0C
:1002AC0048DA274B04221A60294B1B68013B264A6B
:1002BC001360274B1B68642202FB03F319460020D2
:1002CC0000F0A4FE36E000F08DFF00F0B7FF1D4BF0
:1002DC005B68012B0DD16421012000F097FE1A4BB5
:1002EC001B68013B184A1360184B1B68013B174AEB
:1002FC001360154B1B68002B1EDA114B01221A6080
:10030C00154B1B68013B104A1360124B1B68013BD9
:10031C000E4A13600F4B1B68642202FB03F3194651
:10032C00002000F073FE07E000BF06E000BF04E011
:10033C0000BF02E000BF00E000BF00BF80BD00BFF7
:10034C0090000020200100206400002060000020AC
:10035C00080000200C0000200400002080B500AF35
:10036C006C4B1B68093B032B00F2C88001A252F8AE
:10037C0023F000BF91030008070400087B04000869
:10038C00EF040008002000F0C5F90346012B40F0F3
:10039C00B780604B0A221A605F4B06221A6032212A
:1003AC00002000F033FE5D4B02221A605C4B1B6890
:1003BC005C4A136000F0B0FC002210215A4801F096
:1003CC00DAFA00222021584801F0D5FA0022402107
:1003DC00554801F0D0FA00228021534801F0CBFAA5
:1003EC0000224FF48071504801F0C5FA00224FF4FE
:1003FC0000714D4801F0BFFA82E0002000F08AF94C
:10040C000346012B7ED1434B0B221A60424B072231
:10041C001A603221002000F0F9FD404B03221A60D3
:10042C00424B1B683F4A136000F076FC00221021FF
:10043C003D4801F0A0FA002220213B4801F09BFA34
:10044C0000224021384801F096FA002280213648DB
:10045C0001F091FA00224FF48071334801F08BFACD
:10046C0000224FF40071304801F085FA4AE0002078
:10047C0000F050F90346012B46D1264B0C221A6092
:10048C00254B08221A603221002000F0BFFD234BBF
:10049C0004221A60264B1B68224A136000F03CFCB5
:1004AC0000221021204801F066FA002220211E486B
:1004BC0001F061FA002240211B4801F05CFA002295
:1004CC008021194801F057FA00224FF48071164828
:1004DC0001F051FA00224FF40071134801F04BFA6D
:1004EC0012E0002000F016F90346012B0ED1094B47
:1004FC0009221A60084B00221A6007E000BF06E0D0
:10050C0000BF04E000BF02E000BF00E000BF00BF7E
:10051C0080BD00BF0000002090000020640000207F
:10052C0004000020600000200008014008000020AA
:10053C000C00002080B500AF6E4B1B68082B00F040
:10054C008A80082B00F3CC80062B02D0072B42D0DC
:10055C00C6E0694B1B68012B05D13221002000F04D
:10056C0055FD00F0B3FE012000F0D4F80346012B3A
:10057C000DD1624B1B680133604A13605F4B1B68E3
:10058C00632B02DD5D4B01221A6000F0C5FB0220DB
:10059C0000F0C0F80346012B40F0A480574B1B68B9
:1005AC00574A1360564B1B68564A82FB0312921033
:1005BC00DB17D31A544A1360534B1B68002B02DC15
:1005CC00514B01221A604E4B1A684F4B1B68D31AC1
:1005DC004E4A136086E0484B1B68012B05D1322133
:1005EC00002000F013FD00F07FFE012000F092F8D7
:1005FC000346012B0DD1414B1B6801333F4A13605D
:10060C003E4B1B68632B02DD3C4B01221A6000F051
:10061C0083FB022000F07EF80346012B64D1374B9C
:10062C001B68394A1360384B1A6813469B001344F5
:10063C005B001A46324B1A60314B1B68632B02DD90
:10064C002F4B63221A602E4B1A682F4B1B68D31A40
:10065C002E4A136048E0284B1B68012B05D1322130
:10066C00002000F0D3FC00F04FFE012000F052F807
:10067C000346012B0DD1214B1B6801331F4A13601C
:10068C001E4B1B68632B02DD1C4B01221A6000F011
:10069C0043FB022000F03EF80346012B26D1174BFA
:1006AC001B681A4A1360194B1A6813469B001344B3
:1006BC005B00174A82FB03125210DB17D31A104A45
:1006CC0013600F4B1B68632B02DD0D4B63221A600A
:1006DC000B4B1A680D4B1B68D31A0B4A136005E0C1
:1006EC0000BF04E000BF02E000BF00E000BF00BF9D
:1006FC0080BD00BF90000020200100206000002081
:10070C000400002067666666080000200C000020CC
:10071C00398EE33880B483B000AF7860094A7B68C7
:10072C0052F82330012B06D1064A7B68002142F88F
:10073C002310012300E0002318460C37BD4680BC73
:10074C00704700BFA000002080B483B000AF786079
:10075C00044A7B68012142F8231000BF0C37BD46C8
:10076C0080BC7047A000002080B582B000AF002391
:10077C007B608FE04D4A7B6852F823204C497B68A4
:10078C0041F823204B4A7B6852F8232047497B6869
:10079C0041F823207B68002B09D10221464801F047
:1007AC00D3F803461946434A7B6842F823107B680A
:1007BC00012B09D10421404801F0C6F80346194623
:1007CC003C4A7B6842F823107B68022B09D1082134
:1007DC00394801F0B9F803461946364A7B6842F8A5
:1007EC002310324A7B6852F8232032497B6851F837
:1007FC0023309A424BD12D4A7B6852F823202C4946
:10080C007B6851F823309A4241D1294A7B6852F8CF
:10081C0023202A497B6851F823309A4217D0244A66
:10082C007B6852F8232025497B6841F82320234A12
:10083C007B6852F82330002B29D1214A7B684FF476
:10084C00FA7142F823107868FFF77EFF1FE01C4A0C
:10085C007B6852F823305A1E19497B6841F82320D3
:10086C00174A7B6852F82330002B10D1144A7B684E
:10087C004FF4FA7142F82310104A7B6852F8233077
:10088C00002B04D10F4A7B68012142F823107B68AE
:10089C0001337B600C4B1B687A689A42FFF66AAF97
:1008AC0000BF00BF0837BD4680BD00BF2000002040
:1008BC002C0000201400002000080140380000200B
:1008CC0044000020940000201000002080B582B06D
:1008DC0000AF78607B68092B00F2808101A252F88E
:1008EC0023F000BF1909000861090008A9090008D4
:1008FC00F1090008390A0008810A0008C90A000831
:10090C00110B0008590B0008A10B00080022012153
:10091C00B54801F030F800220221B34801F02BF861
:10092C0000220421B04801F026F800220821AE482C
:10093C0001F021F800221021AB4801F01CF8002234
:10094C002021A94801F017F801224021A64801F006
:10095C0012F844E101220121A34801F00CF8002215
:10096C000221A14801F007F8002204219E4801F061
:10097C0002F8012208219C4800F0FDFF0122102101
:10098C00994800F0F8FF01222021974800F0F3FF6E
:10099C0001224021944800F0EEFF20E100220121C9
:1009AC00914800F0E8FF002202218F4800F0E3FF9D
:1009BC00012204218C4800F0DEFF002208218A4825
:1009CC0000F0D9FF00221021874800F0D4FF01224B
:1009DC002021854800F0CFFF00224021824800F002
:1009EC00CAFFFCE0002201217F4800F0C4FF002276
:1009FC0002217D4800F0BFFF002204217A4800F05C
:100A0C00BAFF00220821784800F0B5FF012210211E
:100A1C00754800F0B0FF01222021734800F0ABFFB5
:100A2C0000224021704800F0A6FFD8E001220121ED
:100A3C006D4800F0A0FF002202216B4800F09BFFE4
:100A4C0000220421684800F096FF01220821664824
:100A5C0000F091FF01221021634800F08CFF00226E
:100A6C002021614800F087FF002240215E4800F001
:100A7C0082FFB4E0002201215B4800F07CFF0122E0
:100A8C000221594800F077FF00220421564800F05B
:100A9C0072FF00220821544800F06DFF0122102142
:100AAC00514800F068FF002220214F4800F063FFFE
:100ABC00002240214C4800F05EFF90E00022012112
:100ACC00494800F058FF01220221474800F053FF2B
:100ADC0000220421444800F04EFF00220821424825
:100AEC0000F049FF002210213F4800F044FF002293
:100AFC0020213D4800F03FFF002240213A4800F001
:100B0C003AFF6CE000220121374800F034FF00224C
:100B1C000221354800F02FFF00220421324800F05A
:100B2C002AFF01220821304800F025FF0122102164
:100B3C002D4800F020FF012220212B4800F01BFF44
:100B4C0001224021284800F016FF48E00022012134
:100B5C00254800F010FF00220221234800F00BFF73
:100B6C0000220421204800F006FF002208211E4824
:100B7C0000F001FF002210211B4800F0FCFE0022B7
:100B8C002021194800F0F7FE00224021164800F001
:100B9C00F2FE24E000220121134800F0ECFE0022BA
:100BAC000221114800F0E7FE002204210E4800F05B
:100BBC00E2FE002208210C4800F0DDFE012210218B
:100BCC00094800F0D8FE00222021074800F0D3FE8F
:100BDC0000224021044800F0CEFE00E000BF00BF20
:100BEC000837BD4680BD00BF000C014080B582B007
:100BFC0000AF78607B68032B00F2848001A252F86E
:100C0C0023F000BF210C00085D0C0008990C0008B3
:100C1C00D50C000800224FF480613D4800F0ABFE7B
:100C2C0001224FF400613A4800F0A5FE01224FF476
:100C3C008051374800F09FFE01224FF40051344898
:100C4C0000F099FE334B1B681846FFF73FFE5AE045
:100C5C0001224FF480612E4800F08DFE00224FF4EB
:100C6C0000612B4800F087FE01224FF48051284888
:100C7C0000F081FE01224FF40051254800F07BFE6C
:100C8C00244B5B681846FFF721FE3CE001224FF431
:100C9C0080611F4800F06FFE01224FF400611C4878
:100CAC0000F069FE00224FF48051194800F063FEF9
:100CBC0001224FF40051164800F05DFE154B9B6865
:100CCC001846FFF703FE1EE001224FF48061104826
:100CDC0000F051FE01224FF400610D4800F04BFE74
:100CEC0001224FF480510A4800F045FE00224FF4D7
:100CFC000051074800F03FFE064BDB681846FFF733
:100D0C00E5FD00E000BF00BF0837BD4680BD00BF59
:100D1C00000801405000002080B400AF1A4B1B6843
:100D2C001A4A82FB03129210DB17D31A184A13606B
:100D3C00154B1968154B83FB01239A10CB17D21A4C
:100D4C0013469B0013445B00CA1A114B5A60114B9B
:100D5C001B680E4A82FB03129210DB17D31A0C4A43
:100D6C0093600C4B1968094B83FB01239A10CB172A
:100D7C00D21A13469B0013445B00CA1A044BDA6068
:100D8C0000BFBD4680BC7047640000206766666685
:100D9C00500000206000002080B500AF0E4B9B6817
:100DAC00012B17D11921022000F030F90B4B1B68D5
:100DBC001846FFF71BFFFFF7AFFF084B1B6801330B
:100DCC00064A1360054B1B680422934202DB034B5B
:100DDC0000221A6000BF80BD20010020AC00002062
:100DEC0080B500AF00F0C6FA00F016F800F050F82D
:100DFC0000F09AF8074801F01BFA1921022000F0C4
:100E0C0005F9FFF7C9FFFFF7BDF9FFF7A7FAFFF7E1
:100E1C0091FBF6E7B000002080B590B000AF07F171
:100E2C00180328220021184601F0B2FD3B1D0022B8
:100E3C001A605A609A60DA601A610223BB6101235E
:100E4C00BB621023FB6200237B6307F11803184677
:100E5C0000F0C2FD0346002B01D000F0D1F80F23A7
:100E6C007B600023BB600023FB6000233B610023FD
:100E7C007B613B1D0021184601F02EF80346002B28
:100E8C0001D000F0BDF800BF4037BD4680BD00006A
:100E9C0080B586B000AF07F1080300221A605A60D3
:100EAC009A60DA603B4600221A605A601D4B4FF084
:100EBC0080421A601B4B41F63F725A60194B00225C
:100ECC009A60184B0922DA60164B00221A61154BF6
:100EDC0000229A61134801F05BF90346002B01D004
:100EEC0000F08EF84FF48053BB6007F108031946ED
:100EFC000C4801F0D9FA0346002B01D000F080F821
:100F0C0000233B6000237B603B461946054801F0FB
:100F1C00B1FC0346002B01D000F072F800BF18376B
:100F2C00BD4680BDB000002080B586B000AF07F193
:100F3C00080300221A605A609A60DA60274B9B699A
:100F4C00264A43F004039361244B9B6903F004038A
:100F5C007B607B68214B9B69204A43F008039361BB
:100F6C001E4B9B6903F008033B603B68002243F671
:100F7C00F0711B4800F0FFFC00227F21194800F0A3
:100F8C00FAFC0E23BB600023FB6001233B6107F1DD
:100F9C0008031946124800F05DFB43F6F073BB6082
:100FAC000123FB6000233B6102237B6107F10803F3
:100FBC0019460B4800F04EFB7F23BB600123FB60FE
:100FCC0000233B6102237B6107F1080319460548A6
:100FDC0000F040FB00BF1837BD4680BD001002403A
:100FEC0000080140000C014080B582B000AF786071
:100FFC0000F024F8FFF7B8FB00BF0837BD4680BDF2
:10100C0080B400AF72B600BFFEE7000080B483B0BE
:10101C0000AF78603960074A7B68002142F82310E2
:10102C0005497B683A6841F8232000BF0C37BD4660
:10103C0080BC704720010020F800002080B483B0F1
:10104C0000AF00237B601CE0124A7B6852F823300F
:10105C00002B13DB0F4A7B6852F823305A1E0D49C4
:10106C007B6841F823200B4A7B6852F82330002B15
:10107C0004DC094A7B68012142F823107B680133A8
:10108C007B607B68092BDFDD00BF00BF0C37BD46E2
:10109C0080BC7047F80000202001002080B485B08F
:1010AC0000AF154B9B69144A43F001039361124B3B
:1010BC009B6903F00103BB60BB680F4BDB690E4AF5
:1010CC0043F08053D3610C4BDB6903F080537B609E
:1010DC007B680A4B5B68FB60FB6823F0E063FB609A
:1010EC00FB6843F08063FB60044AFB68536000BFFD
:1010FC001437BD4680BC7047001002400000014010
:10110C0080B584B000AF78607B681B68B3F1804F0A
:10111C0013D10C4BDB690B4A43F00103D361094B30
:10112C00DB6903F00103FB60FB68002200211C203B
:10113C0000F059FA1C2000F072FA00BF1037BD46BF
:10114C0080BD00BF0010024080B400AFFEE780B449
:10115C0000AFFEE780B400AFFEE780B400AFFEE75F
:10116C0080B400AFFEE780B400AF00BFBD4680BCCA
:10117C00704780B400AF00BFBD4680BC704780B4E0
:10118C0000AF00BFBD4680BC704780B500AF00F01B
:10119C0037F900BF80BD000080B500AF024801F0F8
:1011AC0093F800BF80BD00BFB000002080B400AF3A
:1011BC0000BFBD4680BC704780B500AF0122102136
:1011CC00074800F0D8FB00222021054800F0D3FB93
:1011DC0000224021024800F0CEFB00BF80BD00BFC2
:1011EC000008014080B500AF00221021074800F034
:1011FC00C2FB01222021054800F0BDFB002240214A
:10120C00024800F0B8FB00BF80BD00BF00080140E1
:10121C0080B500AF00221021074800F0ACFB002283
:10122C002021054800F0A7FB01224021024800F0D4
:10123C00A2FB00BF80BD00BF0008014080B500AF1D
:10124C0001228021084800F096FB00224FF48071A7
:10125C00054800F090FB00224FF40071024800F0AA
:10126C008AFB00BF80BD00BF0008014080B500AF05
:10127C0000228021084800F07EFB01224FF480718F
:10128C00054800F078FB00224FF40071024800F092
:10129C0072FB00BF80BD00BF0008014080B500AFED
:1012AC0000228021084800F066FB00224FF4807178
:1012BC00054800F060FB01224FF40071024800F079
:1012CC005AFB00BF80BD00BF0008014080B500AFD5
:1012DC001021044800F067FB8021024800F063FBFA
:1012EC0000BF80BD0008014080B500AF202105483B
:1012FC0000F059FB4FF48071024800F054FB00BF22
:10130C0080BD00BF0008014080B500AF40210548FA
:10131C0000F049FB4FF40071024800F044FB00BFA1
:10132C0080BD00BF00080140FFF740FF0B480C498F
:10133C000C4A002302E0D458C4500433C4188C4225
:10134C00F9D3094A094C002301E013600432A2428C
:10135C00FBD301F0F9FAFFF743FD704700000020C2
:10136C0074000020F0290008740000204C010020BB
:10137C00FEE7000080B500AF084B1B68074A43F03E
:10138C0010031360032000F023F90F2000F008F87D
:10139C00FFF784FE0023184680BD00BF00200240EA
:1013AC0080B582B000AF7860124B1A68124B1B7874
:1013BC0019464FF47A73B3FBF1F3B2FBF3F318460F
:1013CC0000F03BF90346002B01D001230EE07B68B3
:1013DC000F2B0AD8002279684FF0FF3000F003F988
:1013EC00064A7B681360002300E001231846083787
:1013FC00BD4680BD68000020700000206C000020FD
:10140C0080B400AF054B1B781A46054B1B68134480
:10141C00034A136000BFBD4680BC704770000020BB
:10142C004801002080B400AF024B1B681846BD4633
:10143C0080BC70474801002080B485B000AF786054
:10144C007B6803F00703FB600C4BDB68BB60BA687E
:10145C004FF6FF031340BB60FB681A02BB681343D3
:10146C0043F0BF6343F40033BB60044ABB68D360F2
:10147C0000BF1437BD4680BC704700BF00ED00E0D4
:10148C0080B400AF044BDB681B0A03F0070318465B
:10149C00BD4680BC704700BF00ED00E080B483B057
:1014AC0000AF0346FB7197F90730002B0BDBFB7980
:1014BC0003F01F02064997F907305B09012000FA77
:1014CC0002F241F8232000BF0C37BD4680BC7047A8
:1014DC0000E100E080B483B000AF03463960FB71DB
:1014EC0097F90730002B0ADB3B68DAB20C4997F905
:1014FC0007301201D2B20B4483F800230AE03B6898
:10150C00DAB20849FB7903F00F03043B1201D2B2A3
:10151C000B441A7600BF0C37BD4680BC704700BF29
:10152C0000E100E000ED00E080B489B000AFF860AD
:10153C00B9607A60FB6803F00703FB61FB69C3F1D8
:10154C000703042B28BF0423BB61FB690433062B60
:10155C0002D9FB69033B00E000237B614FF0FF32B3
:10156C00BB6902FA03F3DA43BB681A407B699A4001
:10157C004FF0FF317B6901FA03F3D9437B680B40D1
:10158C00134318462437BD4680BC704780B582B0E3
:10159C0000AF78607B68013BB3F1807F01D30123FE
:1015AC000FE00A4A7B68013B53600F214FF0FF307C
:1015BC00FFF790FF054B00229A60044B07221A603C
:1015CC00002318460837BD4680BD00BF10E000E080
:1015DC0080B582B000AF78607868FFF72DFF00BF50
:1015EC000837BD4680BD80B586B000AF0346B960F4
:1015FC007A60FB7300237B61FFF742FF78617A68A6
:10160C00B9687869FFF790FF024697F90F301146D9
:10161C001846FFF75FFF00BF1837BD4680BD80B589
:10162C0082B000AF0346FB7197F907301846FFF7FD
:10163C0035FF00BF0837BD4680BD80B582B000AF16
:10164C0078607868FFF7A2FF034618460837BD4656
:10165C0080BD000080B48BB000AF7860396000238F
:10166C007B6200233B6248E101227B6A02FA03F3AE
:10167C00FB613B681B68FA691340BB61BA69FB6983
:10168C009A4240F037813B685B68A34A93425ED034
:10169C00A14A934275D8A14A934258D09F4A93428B
:1016AC006FD89F4A934252D09D4A934269D89D4A23
:1016BC0093424CD09B4A934263D89B4A934246D068
:1016CC00994A93425DD8122B2AD8122B59D801A2D1
:1016DC0052F823F05B17000835170008471700086D
:1016EC00891700088F1700088F1700088F1700083C
:1016FC008F1700088F1700088F1700088F17000826
:10170C008F1700088F1700088F1700088F17000815
:10171C008F1700088F1700083D1700085117000895
:10172C00824A934213D02CE03B68DB683B6229E091
:10173C003B68DB6804333B6224E03B68DB680833BE
:10174C003B621FE03B68DB680C333B621AE03B6892
:10175C009B68002B02D104233B6213E03B689B681F
:10176C00012B05D108233B627B68FA691A6109E0F9
:10177C0008233B627B68FA695A6103E000233B62F1
:10178C0000E000BFBB69FF2B01D87B6801E07B68E0
:10179C0004337B61BB69FF2B02D87B6A9B0002E0A0
:1017AC007B6A083B9B003B617B691A680F213B6994
:1017BC0001FA03F3DB431A40396A3B6901FA03F37C
:1017CC001A437B691A603B685B6803F08053002BFB
:1017DC0000F09080564B9B69554A43F0010393618E
:1017EC00534B9B6903F00103BB60BB68514A7B6A96
:1017FC009B08023352F82330FB607B6A03F003032F
:10180C009B000F2202FA03F3DB43FA681340FB60E0
:10181C007B68494A93420DD07B68484A934207D073
:10182C007B68474A934201D1022304E0032302E080
:10183C00012300E000237A6A02F003029200934035
:10184C00FA681343FB603B497B6A9B080233FA68D6
:10185C0041F823203B685B6803F48013002B06D00F
:10186C00384B9A683749BB6913438B6006E0354B9C
:10187C009A68BB69DB43334913408B603B685B68F8
:10188C0003F40013002B06D02E4BDA682D49BB69EC
:10189C001343CB6006E02B4BDA68BB69DB43294969
:1018AC001340CB603B685B6803F40033002B06D01D
:1018BC00244B5A682349BB6913434B6006E0214B08
:1018CC005A68BB69DB431F4913404B603B685B683C
:1018DC0003F48033002B06D01A4B1A681949BB69E4
:1018EC0013430B6006E0174B1A68BB69DB431549C1
:1018FC0013400B607B6A01337B623B681A687B6A1E
:10190C0022FA03F3002B7FF4AFAE00BF00BF2C37DD
:10191C00BD4680BC704700BF000032100000311083
:10192C000000221000002110000012100000111005
:10193C00001002400000014000080140000C014072
:10194C00001001400004014080B485B000AF786005
:10195C000B467B807B689A687B881340002B02D0F7
:10196C000123FB7301E00023FB73FB7B1846143748
:10197C00BD4680BC704780B483B000AF78600B4626
:10198C007B8013467B707B78002B03D07A887B6836
:10199C001A6103E07B881A047B681A6100BF0C375C
:1019AC00BD4680BC704780B485B000AF78600B46F4
:1019BC007B807B68DB68FB607A88FB6813401A04C9
:1019CC00FB68D9437B880B401A437B681A6100BFC4
:1019DC001437BD4680BC704780B586B000AF7860C8
:1019EC007B68002B01D101236CE27B681B6803F040
:1019FC000103002B00F08780924B5B6803F00C0313
:101A0C00042B0CD08F4B5B6803F00C03082B12D10A
:101A1C008C4B5B6803F48033B3F5803F0BD1894B5F
:101A2C001B6803F40033002B6CD07B685B68002BC5
:101A3C0068D1012346E27B685B68B3F5803F06D131
:101A4C00804B1B687F4A43F4803313602EE07B6825
:101A5C005B68002B0CD17B4B1B687A4A23F48033D8
:101A6C001360784B1B68774A23F4802313601DE0C6
:101A7C007B685B68B3F5A02F0CD1724B1B68714A65
:101A8C0043F4802313606F4B1B686E4A43F480331E
:101A9C0013600BE06B4B1B686A4A23F480331360B2
:101AAC00684B1B68674A23F4802313607B685B6870
:101ABC00002B13D0FFF7B6FC386108E0FFF7B2FC3F
:101ACC0002463B69D31A642B01D90323FAE15D4B1F
:101ADC001B6803F40033002BF0D014E0FFF7A2FCDA
:101AEC00386108E0FFF79EFC02463B69D31A642B71
:101AFC0001D90323E6E1534B1B6803F40033002B9D
:101B0C00F0D100E000BF7B681B6803F00203002BE0
:101B1C0063D04C4B5B6803F00C03002B0BD0494B90
:101B2C005B6803F00C03082B1CD1464B5B6803F479
:101B3C008033002B16D1434B1B6803F00203002BA0
:101B4C0005D07B681B69012B01D00123BAE13D4B09
:101B5C001B6823F0F8027B685B69DB00394913438F
:101B6C000B603AE07B681B69002B20D0364B0122BE
:101B7C001A60FFF757FC386108E0FFF753FC024688
:101B8C003B69D31A022B01D903239BE12D4B1B6814
:101B9C0003F00203002BF0D02A4B1B6823F0F80251
:101BAC007B685B69DB00274913430B6015E0264B10
:101BBC0000221A60FFF736FC386108E0FFF732FCB0
:101BCC0002463B69D31A022B01D903237AE11D4B40
:101BDC001B6803F00203002BF0D17B681B6803F039
:101BEC000803002B3AD07B689B69002B19D0174B4C
:101BFC0001221A60FFF716FC386108E0FFF712FCAF
:101C0C0002463B69D31A022B01D903235AE10D4B2F
:101C1C005B6A03F00203002BF0D0012000F09AFA6B
:101C2C001CE00A4B00221A60FFF7FCFB38610FE046
:101C3C00FFF7F8FB02463B69D31A022B08D90323A2
:101C4C0040E100BF001002400000424280044242CA
:101C5C009E4B5B6A03F00203002BE9D17B681B6887
:101C6C0003F00403002B00F0A6800023FB75974BB8
:101C7C00DB6903F08053002B0DD1944BDB69934A45
:101C8C0043F08053D361914BDB6903F08053BB600D
:101C9C00BB680123FB758E4B1B6803F48073002B10
:101CAC0018D18B4B1B688A4A43F480731360FFF77F
:101CBC00B9FB386108E0FFF7B5FB02463B69D31A64
:101CCC00642B01D90323FDE0814B1B6803F4807363
:101CDC00002BF0D07B68DB68012B06D17B4B1B6A99
:101CEC007A4A43F0010313622DE07B68DB68002B1A
:101CFC000CD1764B1B6A754A23F001031362734BAC
:101D0C001B6A724A23F0040313621CE07B68DB68D5
:101D1C00052B0CD16D4B1B6A6C4A43F00403136208
:101D2C006A4B1B6A694A43F0010313620BE0674B71
:101D3C001B6A664A23F001031362644B1B6A634AF5
:101D4C0023F0040313627B68DB68002B15D0FFF7CC
:101D5C0069FB38610AE0FFF765FB02463B69D31A61
:101D6C0041F28832934201D90323ABE0574B1B6AF3
:101D7C0003F00203002BEED014E0FFF753FB3861A5
:101D8C000AE0FFF74FFB02463B69D31A41F2883257
:101D9C00934201D9032395E04C4B1B6A03F00203D9
:101DAC00002BEED1FB7D012B05D1484BDB69474A5B
:101DBC0023F08053D3617B68DB69002B00F08180BA
:101DCC00424B5B6803F00C03082B61D07B68DB692A
:101DDC00022B46D13F4B00221A60FFF723FB3861E0
:101DEC0008E0FFF71FFB02463B69D31A022B01D90F
:101DFC00032367E0354B1B6803F00073002BF0D115
:101E0C007B681B6AB3F5803F08D1304B5B6823F4C9
:101E1C0000327B689B682D4913434B602B4B5B68EE
:101E2C0023F474127B68196A7B685B6A0B4327493D
:101E3C0013434B60274B01221A60FFF7F3FA38610A
:101E4C0008E0FFF7EFFA02463B69D31A022B01D9DF
:101E5C00032337E01D4B1B6803F00073002BF0D0FD
:101E6C002FE01C4B00221A60FFF7DCFA386108E007
:101E7C00FFF7D8FA02463B69D31A022B01D9032388
:101E8C0020E0124B1B6803F00073002BF0D118E01C
:101E9C007B68DB69012B01D1012313E00B4B5B68E1
:101EAC00FB60FB6803F480327B681B6A9A4206D1A4
:101EBC00FB6803F470127B685B6A9A4201D00123C1
:101ECC0000E0002318461837BD4680BD00100240C4
:101EDC00007000406000424280B584B000AF786072
:101EEC0039607B68002B01D10123D0E06A4B1B6861
:101EFC0003F007033A689A4210D9674B1B6823F02A
:101F0C00070265493B6813430B60634B1B6803F086
:101F1C0007033A689A4201D00123B8E07B681B683A
:101F2C0003F00203002B20D07B681B6803F0040332
:101F3C00002B05D0594B5B68584A43F4E06353605F
:101F4C007B681B6803F00803002B05D0534B5B68C0
:101F5C00524A43F460535360504B5B6823F0F002D9
:101F6C007B689B684D4913434B607B681B6803F08F
:101F7C000103002B40D07B685B68012B07D1474BDA
:101F8C001B6803F40033002B15D101237FE07B6821
:101F9C005B68022B07D1414B1B6803F00073002BCD
:101FAC0009D1012373E03D4B1B6803F00203002BA6
:101FBC0001D101236BE0394B5B6823F003027B6892
:101FCC005B68364913434B60FFF72CFAF8600AE064
:101FDC00FFF728FA0246FB68D31A41F28832934283
:101FEC0001D9032353E02D4B5B6803F00C027B6893
:101FFC005B689B009A42EBD1274B1B6803F00703ED
:10200C003A689A4210D2244B1B6823F007022249EB
:10201C003B6813430B60204B1B6803F007033A68C3
:10202C009A4201D0012332E07B681B6803F0040361
:10203C00002B08D0194B5B6823F4E0627B68DB68EB
:10204C00164913434B607B681B6803F00803002B95
:10205C0009D0124B5B6823F460527B681B69DB0070
:10206C000E4913434B6000F021F802460B4B5B68A2
:10207C001B0903F00F030A49CB5C22FA03F3094A4C
:10208C001360094B1B681846FFF78AF900231846A2
:10209C001037BD4680BD00BF00200240001002403A
:1020AC00C4290008680000206C00002080B487B0B0
:1020BC0000AF0023FB600023BB6000237B61002387
:1020CC007B6000233B611E4B5B68FB60FB6803F08D
:1020DC000C03042B02D0082B03D027E0194B3B61D7
:1020EC0027E0FB689B0C03F00F03174AD35C7B6063
:1020FC00FB6803F48033002B10D0114B5B685B0C36
:10210C0003F00103114AD35CBB607B680D4A02FBF0
:10211C0003F2BB68B2FBF3F37B6104E07B680C4A0F
:10212C0002FB03F37B617B693B6102E0054B3B6186
:10213C0000BF3B6918461C37BD4680BC704700BFCA
:10214C000010024000127A00D4290008E42900088B
:10215C0000093D0080B485B000AF78600A4B1B6865
:10216C000A4AA2FB03235B0A7A6802FB03F3FB60B7
:10217C0000BFFB685A1EFA60002BF9D100BF00BFEC
:10218C001437BD4680BC704768000020D34D6210E8
:10219C0080B582B000AF78607B68002B01D1012341
:1021AC0041E07B6893F83D30DBB2002B06D17B68B5
:1021BC00002283F83C207868FEF7A2FF7B6802229D
:1021CC0083F83D207B681A687B68043319461046F7
:1021DC0000F056FA7B68012283F846207B680122C6
:1021EC0083F83E207B68012283F83F207B68012224
:1021FC0083F840207B68012283F841207B68012210
:10220C0083F842207B68012283F843207B680122FB
:10221C0083F844207B68012283F845207B680122E7
:10222C0083F83D20002318460837BD4680BD0000CA
:10223C0080B485B000AF78607B6893F83D30DBB23A
:10224C00012B01D0012335E07B68022283F83D206D
:10225C007B681B68DA687B681B6842F00102DA60F5
:10226C007B681B68164A934209D07B681B68B3F1E4
:10227C00804F04D07B681B68124A934211D17B6853
:10228C001B689B6803F00703FB60FB68062B10D0F0
:10229C007B681B681A687B681B6842F001021A6035
:1022AC0007E07B681B681A687B681B6842F00102B8
:1022BC001A60002318461437BD4680BC704700BF17
:1022CC00002C01400004004080B584B000AF786061
:1022DC007B681B68DB68FB607B681B681B69BB60E9
:1022EC00BB6803F00203002B20D0FB6803F0020351
:1022FC00002B1BD07B681B686FF002021A617B6895
:10230C0001221A777B681B689B6903F00303002B7F
:10231C0003D0786800F098F905E0786800F08BF944
:10232C00786800F09AF97B6800221A77BB6803F092
:10233C000403002B20D0FB6803F00403002B1BD0FC
:10234C007B681B686FF004021A617B6802221A77A3
:10235C007B681B689B6903F44073002B03D078687F
:10236C0000F072F905E0786800F065F9786800F023
:10237C0074F97B6800221A77BB6803F00803002B02
:10238C0020D0FB6803F00803002B1BD07B681B6874
:10239C006FF008021A617B6804221A777B681B684D
:1023AC00DB6903F00303002B03D0786800F04CF9D1
:1023BC0005E0786800F03FF9786800F04EF97B682A
:1023CC0000221A77BB6803F01003002B20D0FB68A7
:1023DC0003F01003002B1BD07B681B686FF01002FE
:1023EC001A617B6808221A777B681B68DB6903F427
:1023FC004073002B03D0786800F026F905E078686C
:10240C0000F019F9786800F028F97B6800221A7737
:10241C00BB6803F00103002B0CD0FB6803F0010335
:10242C00002B07D07B681B686FF001021A6178687B
:10243C00FEF7DAFDBB6803F08003002B0CD0FB68C1
:10244C0003F08003002B07D07B681B686FF08002C1
:10245C001A61786800F06FFABB6803F04003002B38
:10246C000CD0FB6803F04003002B07D07B681B6883
:10247C006FF040021A61786800F0F8F8BB6803F05E
:10248C002003002B0CD0FB6803F02003002B07D09B
:10249C007B681B686FF020021A61786800F042FAC2
:1024AC0000BF1037BD4680BD80B584B000AF7860EA
:1024BC0039600023FB737B6893F83C30012B01D10E
:1024CC000223B4E07B68012283F83C207B68022263
:1024DC0083F83D207B681B689B68BB60BB6823F05E
:1024EC007703BB60BB6823F47F43BB607B681B68CE
:1024FC00BA689A603B681B68B3F5005F3ED0B3F5D1
:10250C00005F00F28780B3F5805F00F08680B3F542
:10251C00805F7FD8702B1AD0702B7BD8602B50D05B
:10252C00602B77D8502B3CD0502B73D8402B58D0E5
:10253C00402B6FD8302B64D0302B6BD8202B60D035
:10254C00202B67D8002B5CD0102B5AD062E07B6814
:10255C0018683B6899683B685A683B68DB6800F010
:10256C006AF97B681B689B68BB60BB6843F07703A8
:10257C00BB607B681B68BA689A604FE07B68186820
:10258C003B6899683B685A683B68DB6800F053F914
:10259C007B681B689A687B681B6842F480429A606F
:1025AC003CE07B6818683B6859683B68DB681A46F6
:1025BC0000F0CAF87B681B685021184600F021F91E
:1025CC002CE07B6818683B6859683B68DB681A46E6
:1025DC0000F0E8F87B681B686021184600F011F9E0
:1025EC001CE07B6818683B6859683B68DB681A46D6
:1025FC0000F0AAF87B681B684021184600F001F92E
:10260C000CE07B681A683B681B681946104600F0A2
:10261C00F8F803E00123FB7300E000BF7B680122A4
:10262C0083F83D207B68002283F83C20FB7B184616
:10263C001037BD4680BD80B483B000AF786000BF5A
:10264C000C37BD4680BC704780B483B000AF786057
:10265C0000BF0C37BD4680BC704780B483B000AF60
:10266C00786000BF0C37BD4680BC704780B483B027
:10267C0000AF786000BF0C37BD4680BC70470000CF
:10268C0080B485B000AF786039607B681B68FB60F4
:10269C007B682B4A934207D07B68B3F1804F03D001
:1026AC007B68284A934208D1FB6823F07003FB60D7
:1026BC003B685B68FA681343FB607B68204A934273
:1026CC0007D07B68B3F1804F03D07B681D4A9342DF
:1026DC0008D1FB6823F44073FB603B68DB68FA6845
:1026EC001343FB60FB6823F080023B685B69134378
:1026FC00FB607B68FA681A603B689A687B68DA62F0
:10270C003B681A687B689A627B680D4A934203D1D6
:10271C003B681A697B681A637B6801225A617B6883
:10272C001B6903F00103002B05D07B681B6923F0A8
:10273C0001027B681A6100BF1437BD4680BC70472C
:10274C00002C01400004004080B487B000AFF8605A
:10275C00B9607A60FB681B6A7B61FB681B6A23F0BB
:10276C000102FB681A62FB689B693B613B6923F0C1
:10277C00F0033B617B681B013A6913433B617B6946
:10278C0023F00A037B617A69BB6813437B61FB68A6
:10279C003A699A61FB687A691A6200BF1C37BD46B8
:1027AC0080BC704780B487B000AFF860B9607A60C5
:1027BC00FB681B6A7B61FB681B6A23F01002FB68D9
:1027CC001A62FB689B693B613B6923F470433B6174
:1027DC007B681B033A6913433B617B6923F0A003BD
:1027EC007B61BB681B017A6913437B61FB683A69A7
:1027FC009A61FB687A691A6200BF1C37BD4680BCBF
:10280C00704780B485B000AF786039607B689B6896
:10281C00FB60FB6823F07003FB603A68FB681343B2
:10282C0043F00703FB607B68FA689A6000BF1437BB
:10283C00BD4680BC704780B487B000AFF860B9600B
:10284C007A603B60FB689B687B617B6923F47F4308
:10285C007B613B681A027B681A43BB6813437A6935
:10286C0013437B61FB687A699A6000BF1C37BD46D5
:10287C0080BC704780B485B000AF786039607B68ED
:10288C0093F83C30012B01D1022341E07B680122FB
:10289C0083F83C207B68022283F83D207B681B6810
:1028AC005B68FB607B681B689B68BB60FB6823F004
:1028BC007003FB603B681B68FA681343FB607B6822
:1028CC001B68FA685A607B681B68144A934209D0EB
:1028DC007B681B68B3F1804F04D07B681B68104A7F
:1028EC0093420CD1BB6823F08003BB603B685B68F0
:1028FC00BA681343BB607B681B68BA689A607B68D4
:10290C00012283F83D207B68002283F83C200023C1
:10291C0018461437BD4680BC704700BF002C0140E0
:10292C000004004080B483B000AF786000BF0C3767
:10293C00BD4680BC704780B483B000AF786000BFE8
:10294C000C37BD4680BC704770B500260C4D0D4C45
:10295C00641BA410A64209D100F022F800260A4DEF
:10296C000A4C641BA410A64205D170BD55F8043B5B
:10297C0098470136EEE755F8043B98470136F2E7E5
:10298C00E8290008E8290008E8290008EC290008D3
:10299C0003460244934200D1704703F8011BF9E748
:1029AC00F8B500BFF8BC08BC9E467047F8B500BF30
:0829BC00F8BC08BC9E46704700
:1029C40000000000000000000102030406070809DB
:1029D40002030405060708090A0B0C0D0E0F10105C
:0429E40001020000EC
:0429E80031010008B1
:0429EC000D010008D1
:1029F00009000000070000000200000005000000C0
:102A000003000000010000000100000001000000C0
:102A100001000000010000000100000001000000B2
:102A200001000000010000000100000001000000A2
:102A300001000000F4010000F4010000F4010000B6
:102A40001E0000001E00000000000000000000004A
:102A50001E0000001E00000000127A00100000009E
:042A60000100000071
:0400000508001335A7
:00000001FF
